:10000000B6EF08F0F76A140FF66E000EF72209003B
:10001000F5501200000000000000005F0000000327
:10002000000300143E143E14242A7F2A124333088E
:10003000666136495522500005030000001C22412C
:10004000000041221C0014083E081408083E08085D
:100050000050300000080808080800606000002018
:10006000100804023E5149453E0004027F004261EF
:1000700051494622414949361814127F10274545F7
:1000800045393E4949493201017109073649494913
:1000900036264949493E00363600000056360000F3
:1000A00008142241001414141414004122140802EC
:1000B000015109063E4159555E7E0909097E7F4975
:1000C0004949363E414141227F4141413E7F4949B4
:1000D00049417F090909013E4141493A7F08080821
:1000E0007F00417F4100304040403F7F0814224163
:1000F0007F404040407F020C027F7F0204087F3E29
:100100004141413E7F090909061E2121215E7F09E7
:1001100009097600F76A240FF66E010EF72209002E
:10012000F5501200264949493201017F01013F4043
:1001300040403F1F2040201F7F2010207F41221C75
:10014000224107087008076151494543007F41007B
:100150000002040810200000417F00040201020494
:100160004040404040000102040020545454787F35
:10017000444444383844444444384444447F385424
:1001800054541804047E0505085454543C7F080454
:10019000047800447D40002040443D007F10284406
:1001A0000000417F40007C047804787C08040478D7
:1001B00038444444387C14141408081414147C0083
:1001C0007C080404485454542004043F44443C40F4
:1001D00040207C1C2040201C3C4030403C442810E7
:1001E00028440C5050503C4464544C440008364160
:1001F0004100007F00004141360800020102040274
:10020000F76A100FF66E020EF7220900F550120081
:100210003132334134353642373839432A3023447A
:1002200011EF09F0000E956E9296899601017F53A9
:1002300003E09292898202D09290898000D0956AE0
:1002400080C18CFF00D09298898800D092988998BC
:100250009290899092928992000112000101626B42
:10026000625107083CE3929489947F6B400E806F43
:100270000001D8DF010E01017F6F400E806F000189
:10028000D1DF01016251B809646F7F6B806F00019B
:10029000C9DF01016251B809646F010E7F6F64C14B
:1002A00080F10001BFDF929489840101636B635187
:1002B0003F0813E36151FF0DF3CF80F17F6B000125
:1002C000B1DF01016151FF0DF3CF80F1010E7F6FAE
:1002D0000001A8DF0101632BEAD7622BC1D700011F
:1002E000120094908B809298899892908990929223
:1002F00089929294899401017F6BC00E806F0001F6
:1003000091DF010E01017F6FC00E806F00018ADF57
:1003100001017F6B400E806F000184DF010E01013F
:100320007F6F400E806F00017DDF01017F6BB80E93
:10033000806F000177DF010E01017F6FB80E806FC3
:10034000000170DFE22D0ED001017F6B3F0E806F48
:10035000000168DF010E01017F6F3F0E806F000119
:1003600061DF0DD001017F6B3E0E806F00015ADF0F
:10037000010E01017F6F3E0E806F000153DF01010E
:10038000616B00016BDF15EF09F0FF0E956E929621
:10039000898601017E5303E09292898202D0929075
:1003A000898000D09298898800D0956883CF7FF1AA
:1003B0009298899892908990929289927FC101F047
:1003C0000001120001017C9178513F0803E2400EC8
:1003D000785F7C8192948994789F788D000E7CB1AF
:1003E000010E7D6F7F6F78C180F100011BDF000E71
:1003F00001017CB1010E7D6F7931006E0032003257
:100400001F0E00160050BF0BB8097E6F7DC17FF133
:10041000806F000107DF92948984000E01017CB196
:10042000010E7D6F7E6F0001B0DF000E01017CB117
:10043000010E7D6F7E6F0001A8DF01C07BF101011D
:100440007A2D0FD07951070B7D6F010E006E7D5113
:10045000016E04E0D8900036012EFCD700507B13CB
:100460000FD07951070B7D6F010E006E7D51016E2B
:1004700004E0D8900036012EFCD70050FF0A7B170D
:1004800092948994000E7CB1010E7D6F7F6F78C1CC
:1004900080F10001C7DE92948984000E01017CB1D5
:1004A000010E7D6F7F6F7BC180F10001BBDE10EF1D
:1004B00003F06AC1EAFF010169C1E9FFEF52D8B454
:1004C000C1D06AC1EAFF69C1E9FFEF50520821E3D8
:1004D0006AC103F069C1E9FF03C0EAFF200EEF5CC7
:1004E000050DF350036A766F010EEA6E710EE96E28
:1004F0007A6B76C179F1050E016EF76A76510001CB
:1005000081DD0A000900F5CFEEFF012EFBD72FD0C9
:1005100001016AC1EAFF69C1E9FFEF507E0821E3EA
:100520006AC103F069C1E9FF03C0EAFF530EEF5C43
:10053000050DF350036A766F010EEA6E710EE96ED7
:100540007A6B76C179F1050E016EF76A765100017A
:10055000E1DD0A000900F5CFEEFF012EFBD707D041
:100560000101716B726B736B746B756B00016AC107
:1005700003F001016951E96E03C0EAFFEF500A0A76
:10058000000103E0070A09E00CD001016B51070DDF
:10059000F350010F68274FD000010101676B4BD06A
:1005A000000101016B51050DF35067257F0806E23C
:1005B000676B6B51070DF350010F68276D6B6D5121
:1005C000040839E36E6B6E51060831E3036A6D511E
:1005D000710FE96E010E0320EA6EEFCF00F06E514D
:1005E000016E04E0D8900032012EFCD700A01DD08F
:1005F0006F6B6B516F5D19E2706B6B51705D13E245
:1006000070516725766F6E516B03F35068256F2527
:10061000776F76C178F1796F6CC17AF10001D2D62B
:100620000101702BEAD76F2BE4D76E2BCCD76D2B43
:100630006B516727C4D7692BD8B46A2B672B00018D
:1006400038D70101000112000101666B042A045031
:1006500021085BE20750FC0F19E2040F00018BEF49
:1006600003F0EF0E936E816E010110D0DF0E936EDA
:10067000816E01010BD0BF0E936E816E010106D019
:100680007F0E936E816E010101D0010105A009D09A
:1006900081500F0B0F0804E1059006C066F1066A51
:1006A00031D081500F0B0F0828E08150010B02E17F
:1006B000676B11D08150020B03E1010E676F0BD005
:1006C0008150040B03E1020E676F05D08150080BC7
:1006D00002E1030E676F6751040DF350696B686F99
:1006E000036A07506825016E695103220150000119
:1006F00087DD066E058007D00101072A0750040830
:1007000001E1076A0001046A0101FF0E936E66C1F0
:1007100001F000011200E824F76AF736310FF66E97
:10072000070EF7220A00F550FA6E0800F550F96E30
:1007300062066C06760680060101656B010E635D3C
:10074000655D2DE2000180DF01C064F101016453A9
:1007500025E06451230801E122D064512F081EE2F4
:10076000645139081BE36551652B6125E96E000E64
:100770006221EA6E64C1EFFF6551060DF350040F6C
:10078000666F676F200E686F010E6A6F640E696F87
:10079000010E6B6F6C6F00018CDE0101CFD76551CC
:1007A0006125E96E000E6221EA6EEF6A0001120017
:1007B000006A016A01016851D89069B100260032CF
:1007C000013269B300260032013269B500260032D9
:1007D000013269B700260032013269B900260032C1
:1007E000013269BB00260032013269BD00260032A9
:1007F000013269BF002600320132000168EF04F0C7
:100800000101666B646B0A0E656F636B6151621167
:1008100003E1000E016EBBD06651662B6125E96EC7
:10082000000E6221EA6EEFCF67F167512D080CE1EF
:10083000010E646F6651662B6125E96E000E622120
:10084000EA6EEFCF67F10CD067512B0809E16651D2
:10085000662B6125E96E000E6221EA6EEFCF67F12B
:1008600067512F08D8B08BD067513908D8A087D0EE
:10087000675130081EE166516125E96E000E622164
:10088000EA6EEF50780809E066516125E96E000EC6
:100890006221EA6EEF5058080CE1100E656F662B6E
:1008A0006651662B6125E96E000E6221EA6EEFCF7C
:1008B00067F165510A081CE167512F0818E267517A
:1008C000390815E30A0E686F63C169F1000170D73A
:1008D000300E0101675D0124636F6651662B61254F
:1008E000E96E000E6221EA6EEFCF67F1E5D747D0DF
:1008F0006551100844E16751600806E267517A08C3
:1009000003E36751DF0B01D06751676F67512F0811
:1009100003E26751390806E26751400830E2675147
:1009200046082DE367512F080CE26751390809E3A7
:100930006339686FF00E6817300E675D6825636F66
:1009400009D06339686FF00E6817410E675D0A0FB2
:100950006825636F6651662B6125E96E000E622182
:10096000EA6EEFCF67F16751600806E267517A08D7
:1009700003E36751DF0B01D06751676FC7D7642D61
:1009800004D065510A0801E1636D63C101F0000103
:1009900065EF06F00101646B61530EE162C1E9FF8E
:1009A00063C1EAFF300EEF6E010E6225E96E000EA4
:1009B0006321EA6EEF6A36D061530FE0036A645137
:1009C000660FE96E010E0320EA6E6151010B300FD4
:1009D000EF6ED8906133642BEFD7656B6451655D22
:1009E0001AE265516225016E000E6321036E7B6F72
:1009F0006551645DFF0F036A660FE96E010E032007
:100A0000EA6EEFCF7CF17BC1EAFF01C0E9FF7CC158
:100A1000EFFF652BE3D764516225E96E000E632179
:100A2000EA6EEF6A00016FEF06F00101646B61533B
:100A30000EE162C1E9FF63C1EAFF300EEF6E010E05
:100A40006225E96E000E6321EA6EEF6A39D06153C8
:100A500012E0036A6451660FE96E010E0320EA6E2C
:100A60006151070B300FEF6E6133613361331F0E3D
:100A70006117642BECD7656B6451655D1AE26551B3
:100A80006225016E000E6321036E7B6F6551645D0C
:100A9000FF0F036A660FE96E010E0320EA6EEFCFC7
:100AA0007CF17BC1EAFF01C0E9FF7CC1EFFF652B50
:100AB000E3D764516225E96E000E6321EA6EEF6AA6
:100AC000000178EF06F00101646B300E7A6F310E91
:100AD0007B6F320E7C6F330E7D6F340E7E6F350E62
:100AE0007F6F360E806F370E816F380E826F390E32
:100AF000836F410E846F420E856F430E866F440EE6
:100B0000876F450E886F460E896F8A6B61530EE1C1
:100B100062C1E9FF63C1EAFF300EEF6E010E62258C
:100B2000E96E000E6321EA6EEF6A44D061531DE066
:100B3000036A6451660F016E010E032203C08CF13B
:100B400061510F0B036A7A0FE96E010E0320EA6E02
:100B5000EFCF8DF18CC1EAFF01C0E9FF8DC1EFFF3E
:100B6000613B0F0E6117642BE1D7656B6451655DC6
:100B70001AE265516225016E000E6321036E8C6FCF
:100B80006551645DFF0F036A660FE96E010E032075
:100B9000EA6EEFCF8DF18CC1EAFF01C0E9FF8DC194
:100BA000EFFF652BE3D764516225E96E000E6321E8
:100BB000EA6EEF6A000181EF06F0010EEA6E620E46
:100BC000E96EEF500DE0020E016E006A002EFED7B6
:100BD000012EFBD7970E006E002EFED7EF2EF3D717
:100BE0001200490E0101326F6E0E336F670E346FC3
:100BF000720E356F650E366F730E376F650E386F78
:100C0000200E396F440E3A6F650E3B6F630E3C6FDA
:100C1000690E3D6F6D0E3E6F610E3F6F6C0E406F43
:100C20003A0E416F426B420E436F690E446F6E0E77
:100C3000456F610E466F720E476F690E486F6F0EFB
:100C4000496F3A0E4A6F4B6B4F0E4C6F630E4D6FF0
:100C5000740E4E6F610E4F6F6C0E506F3A0E516FE7
:100C6000526B480E536F650E546F780E556F610EC0
:100C7000566F640E576F650E586F630E596F690E8D
:100C80005A6F6D0E5B6F610E5C6F6C0E5D6F3A0E8E
:100C90005E6F5F6B040E676F100E686F010E6A6FF8
:100CA000320E696F010E6B6F6C6F000102DC010187
:100CB000626BE20E616F140E636F00013DDD010196
:100CC000626BE20E616F00019BD501C060F160C1F3
:100CD00061F10101636BF60E626F00015BD660C1CA
:100CE00061F1010E0101636F0A0E626F00019DD672
:100CF00060C161F1010E0101636F1E0E626F0001A0
:100D0000E2D60101616B00012EEC01F0040E01013D
:100D1000676F080E686F010E6A6F430E696F010EF0
:100D20006B6F6C6F000159EC02F0040E0101676FEC
:100D3000100E686F6A6BF60E696F010E6B6F6C6F49
:100D4000000159EC02F0040E0101616FFA0E626FAE
:100D5000000133DF0101612FF9D7040E676F180E10
:100D6000686F010E6A6F4C0E696F010E6B6F6C6FCE
:100D7000000159EC02F0040E0101676F200E686F4C
:100D8000010E6A6F0A0E696F010E6B6F6C6F0001C6
:100D900059EC02F0040E0101616FFA0E626F00015E
:100DA0000CDF0101612FF9D7040E676F280E686F01
:100DB000010E6A6F530E696F010E6B6F6C6F00014D
:100DC00059EC02F0040E0101676F300E686F010EDE
:100DD0006A6F1E0E696F010E6B6F6C6F000159EC2C
:100DE00002F0040E0101616FFA0E626F0001E5DE90
:100DF0000101612FF9D7000180EF09F028C12AF124
:100E000027C129F12AC1EAFF010129C1E9FFEF52F7
:100E100006E0292BD8B42A2B0001F4D70101275171
:100E2000295D006E28512A59036E00C001F0026E40
:100E300000011200010129C101F02AC103F027C1FC
:100E4000E9FF28C1EAFFEFCF2FF103C0EAFF01C09D
:100E5000E9FF2FC1EFFF010E2C6F2B512C5D25E216
:100E60002C512925016E000E2A21036E01C02DF19F
:100E70002E6F2C512725E96E000E2821EA6EEFCF48
:100E80002FF1010E2C5D2725E96E000E2821EA6E58
:100E9000EF502F5D02E1300E01D0310E2EC1EAFF7E
:100EA0002DC1E9FFEF6E2C2BD8D72B512925E96EE8
:100EB000000E2A21EA6EEF6A0001C0EF07F0490E2A
:100EC00001010A6F6E0E0B6F670E0C6F720E0D6FC5
:100ED000650E0E6F730E0F6F650E106F200E116F83
:100EE000420E126F690E136F6E0E146F610E156F46
:100EF000720E166F690E176F6F0E186F3A0E196F1C
:100F00001A6B470E1B6F720E1C6F610E1D6F790EF0
:100F10001E6F200E1F6F430E206F6F0E216F640E29
:100F2000226F650E236F3A0E246F256B040E676FD8
:100F3000100E686F010E6A6F0A0E696F010E6B6FFB
:100F40006C6F000159EC02F00101626BE20E616FFF
:100F5000140E636F00019CEC03F00101286BE20E9C
:100F6000276F00014BDF01C026F10101286BE20E63
:100F7000276F2A6BF60E296F26C12BF100015AD775
:100F80000101616B00012EEC01F0040E0101676F9D
:100F9000080E686F010E6A6F1B0E696F010E6B6F92
:100FA0006C6F000159EC02F0040E0101676F100E26
:100FB000686F6A6BF60E696F010E6B6F6C6F0001E4
:100FC00059EC02F09DEF09F0010128C101F029C19F
:100FD00003F026C1E9FF27C1EAFFEFCF2EF103C0DE
:100FE000EAFF01C0E9FF2EC1EFFF010E2B6F2A516E
:100FF0002B5D2FE22B512825016E000E2921036E57
:1010000001C02CF12D6F2B512625E96E000E2721F2
:10101000EA6EEF50300809E1010E2B5D2825E96EDC
:10102000000E2921EA6EEF500DD0010E2B5D282510
:10103000E96E000E2921EA6EEF50300802E1310E10
:1010400001D0300E2DC1EAFF2CC1E9FFEF6E2B2B32
:10105000CED72A512825E96E000E2921EA6EEF6AC3
:10106000000192EF08F0490E01010A6F6E0E0B6F3E
:10107000670E0C6F720E0D6F650E0E6F730E0F6F95
:10108000650E106F200E116F470E126F720E136FE8
:10109000610E146F790E156F3A0E166F176B420EB4
:1010A000186F690E196F6E0E1A6F610E1B6F720E3C
:1010B0001C6F790E1D6F200E1E6F430E1F6F6F0E7B
:1010C000206F640E216F650E226F3A0E236F246B22
:1010D000040E676F100E686F010E6A6F0A0E696F5B
:1010E000010E6B6F6C6F000159EC02F00101626B35
:1010F000E20E616F140E636F00019CEC03F00101BE
:10110000286BE20E276F000179DE01C025F1010195
:10111000276BE20E266F296BF60E286F25C12AF188
:10112000000152D70101616B00012EEC01F0040EA9
:101130000101676F080E686F010E6A6F180E696F04
:10114000010E6B6F6C6F000159EC02F0040E01018F
:10115000676F100E686F6A6BF60E696F010E6B6F2A
:101160006C6F000159EC02F0BAEF09F0F86AD09EFA
:10117000C150C00B0F09C16E070EB46E059030D080
:101180000100040004000600000000010024001516
:1011900000424D656E7520646520436F6E76657202
:1011A00073696F6E65730014006A312044656320B3
:1011B000612042696E2D4F63742D486578000D00E3
:1011C00092322042696E20612047726179000D00E1
:1011D000BA33204772617920612042696E000000B5
:1011E000000EF86E110EF76E800EF66E0900F550C7
:1011F000006E000A13E00900F550016EE8BE05D04C
:101200003F0BEA6E0900F5CFE9FF01BC090001AC14
:101210000900F5CFEEFF004EE9D7F9D7F86A10EFD5
:1012200001F0010EE26F71EF01F00101616B00014D
:101230002EEC01F0406A416A386A396A3A6A3B6AC0
:10124000406A0101616B00012EEC01F00101676B46
:10125000686B6A6B420E696F010E6B6F6C6F0001F9
:1012600059EC02F0040E0101676F100E686F6A6B93
:101270006A0E696F010E6B6F6C6F000159EC02F022
:10128000040E0101676F200E686F6A6B920E696F22
:10129000010E6B6F6C6F000159EC02F0040E01013E
:1012A000676F320E686F6A6BBA0E696F010E6B6FF3
:1012B0006C6F000159EC02F024EC03F001C040F027
:1012C0004052FAE0300E405C416E4150010A05E0A8
:1012D000030A20E0010A3BE056D00101616B0001E6
:1012E0002EEC01F0040E0101676F686F6A6B6A0EE5
:1012F000696F010E6B6F6C6F000159EC02F071D4D5
:10130000040EE26FFA0E0101626F000156DCE22F5B
:10131000F9D739D00101616B00012EEC01F0040E08
:101320000101676F686F6A6B920E696F010E6B6FD8
:101330006C6F000159EC02F0C2D5040EE26FFA0E98
:101340000101626F000139DCE22FF9D71CD00101E5
:10135000616B00012EEC01F0040E0101676F686FF4
:101360006A6BBA0E696F010E6B6F6C6F000159ECFE
:1013700002F079D6040EE26FFA0E0101626F0001ED
:0A1380001CDCE22FF9D758D7030058
:020000040030CA
:0E0000003FCF261E0087A1000FC00FE00F406B
:00000001FF
;PIC18F4550
;CRC=329A  CREATED="09-Dec-24 23:27"
